{
  "_format": "hh-sol-artifact-1",
  "contractName": "ComplianceManager",
  "sourceName": "contracts/ComplianceManager.sol",
  "abi": [
    {
      "inputs": [],
      "stateMutability": "nonpayable",
      "type": "constructor"
    },
    {
      "anonymous": false,
      "inputs": [
        {
          "indexed": true,
          "internalType": "address",
          "name": "user",
          "type": "address"
        },
        {
          "indexed": false,
          "internalType": "string",
          "name": "jurisdiction",
          "type": "string"
        }
      ],
      "name": "KYCApproved",
      "type": "event"
    },
    {
      "anonymous": false,
      "inputs": [
        {
          "indexed": true,
          "internalType": "address",
          "name": "user",
          "type": "address"
        }
      ],
      "name": "KYCRevoked",
      "type": "event"
    },
    {
      "anonymous": false,
      "inputs": [
        {
          "indexed": true,
          "internalType": "address",
          "name": "previousOwner",
          "type": "address"
        },
        {
          "indexed": true,
          "internalType": "address",
          "name": "newOwner",
          "type": "address"
        }
      ],
      "name": "OwnershipTransferred",
      "type": "event"
    },
    {
      "anonymous": false,
      "inputs": [
        {
          "indexed": false,
          "internalType": "address",
          "name": "account",
          "type": "address"
        }
      ],
      "name": "Paused",
      "type": "event"
    },
    {
      "anonymous": false,
      "inputs": [
        {
          "indexed": true,
          "internalType": "address",
          "name": "property",
          "type": "address"
        },
        {
          "indexed": false,
          "internalType": "bool",
          "name": "requiresProspera",
          "type": "bool"
        },
        {
          "indexed": false,
          "internalType": "bool",
          "name": "allowsInternational",
          "type": "bool"
        }
      ],
      "name": "PropertyJurisdictionSet",
      "type": "event"
    },
    {
      "anonymous": false,
      "inputs": [
        {
          "indexed": true,
          "internalType": "address",
          "name": "user",
          "type": "address"
        },
        {
          "indexed": false,
          "internalType": "string",
          "name": "permitId",
          "type": "string"
        }
      ],
      "name": "ProspectsPermitRegistered",
      "type": "event"
    },
    {
      "anonymous": false,
      "inputs": [
        {
          "indexed": false,
          "internalType": "address",
          "name": "account",
          "type": "address"
        }
      ],
      "name": "Unpaused",
      "type": "event"
    },
    {
      "inputs": [
        {
          "internalType": "address",
          "name": "user",
          "type": "address"
        },
        {
          "internalType": "string",
          "name": "jurisdiction",
          "type": "string"
        },
        {
          "internalType": "uint256",
          "name": "expiryTimestamp",
          "type": "uint256"
        }
      ],
      "name": "approveKYC",
      "outputs": [],
      "stateMutability": "nonpayable",
      "type": "function"
    },
    {
      "inputs": [
        {
          "internalType": "address",
          "name": "user",
          "type": "address"
        },
        {
          "internalType": "address",
          "name": "property",
          "type": "address"
        },
        {
          "internalType": "uint256",
          "name": "amount",
          "type": "uint256"
        }
      ],
      "name": "canInvest",
      "outputs": [
        {
          "internalType": "bool",
          "name": "",
          "type": "bool"
        },
        {
          "internalType": "string",
          "name": "",
          "type": "string"
        }
      ],
      "stateMutability": "view",
      "type": "function"
    },
    {
      "inputs": [
        {
          "internalType": "address",
          "name": "from",
          "type": "address"
        },
        {
          "internalType": "address",
          "name": "to",
          "type": "address"
        },
        {
          "internalType": "address",
          "name": "property",
          "type": "address"
        },
        {
          "internalType": "uint256",
          "name": "amount",
          "type": "uint256"
        }
      ],
      "name": "canTransfer",
      "outputs": [
        {
          "internalType": "bool",
          "name": "",
          "type": "bool"
        },
        {
          "internalType": "string",
          "name": "",
          "type": "string"
        }
      ],
      "stateMutability": "view",
      "type": "function"
    },
    {
      "inputs": [
        {
          "internalType": "address",
          "name": "user",
          "type": "address"
        }
      ],
      "name": "getUserComplianceStatus",
      "outputs": [
        {
          "internalType": "bool",
          "name": "kycValid",
          "type": "bool"
        },
        {
          "internalType": "string",
          "name": "jurisdiction",
          "type": "string"
        },
        {
          "internalType": "uint256",
          "name": "expiry",
          "type": "uint256"
        },
        {
          "internalType": "bool",
          "name": "hasProspectsPermit",
          "type": "bool"
        },
        {
          "internalType": "string",
          "name": "permitId",
          "type": "string"
        }
      ],
      "stateMutability": "view",
      "type": "function"
    },
    {
      "inputs": [
        {
          "internalType": "address",
          "name": "",
          "type": "address"
        }
      ],
      "name": "internationalProperties",
      "outputs": [
        {
          "internalType": "bool",
          "name": "",
          "type": "bool"
        }
      ],
      "stateMutability": "view",
      "type": "function"
    },
    {
      "inputs": [
        {
          "internalType": "address",
          "name": "",
          "type": "address"
        }
      ],
      "name": "kycApproved",
      "outputs": [
        {
          "internalType": "bool",
          "name": "",
          "type": "bool"
        }
      ],
      "stateMutability": "view",
      "type": "function"
    },
    {
      "inputs": [
        {
          "internalType": "address",
          "name": "",
          "type": "address"
        }
      ],
      "name": "kycExpiry",
      "outputs": [
        {
          "internalType": "uint256",
          "name": "",
          "type": "uint256"
        }
      ],
      "stateMutability": "view",
      "type": "function"
    },
    {
      "inputs": [
        {
          "internalType": "address",
          "name": "",
          "type": "address"
        }
      ],
      "name": "kycJurisdiction",
      "outputs": [
        {
          "internalType": "string",
          "name": "",
          "type": "string"
        }
      ],
      "stateMutability": "view",
      "type": "function"
    },
    {
      "inputs": [
        {
          "internalType": "string",
          "name": "",
          "type": "string"
        }
      ],
      "name": "maxInvestmentPerProperty",
      "outputs": [
        {
          "internalType": "uint256",
          "name": "",
          "type": "uint256"
        }
      ],
      "stateMutability": "view",
      "type": "function"
    },
    {
      "inputs": [],
      "name": "owner",
      "outputs": [
        {
          "internalType": "address",
          "name": "",
          "type": "address"
        }
      ],
      "stateMutability": "view",
      "type": "function"
    },
    {
      "inputs": [],
      "name": "paused",
      "outputs": [
        {
          "internalType": "bool",
          "name": "",
          "type": "bool"
        }
      ],
      "stateMutability": "view",
      "type": "function"
    },
    {
      "inputs": [
        {
          "internalType": "address",
          "name": "",
          "type": "address"
        }
      ],
      "name": "prosperaPermitId",
      "outputs": [
        {
          "internalType": "string",
          "name": "",
          "type": "string"
        }
      ],
      "stateMutability": "view",
      "type": "function"
    },
    {
      "inputs": [
        {
          "internalType": "address",
          "name": "",
          "type": "address"
        }
      ],
      "name": "prosperaPermitValid",
      "outputs": [
        {
          "internalType": "bool",
          "name": "",
          "type": "bool"
        }
      ],
      "stateMutability": "view",
      "type": "function"
    },
    {
      "inputs": [
        {
          "internalType": "address",
          "name": "",
          "type": "address"
        }
      ],
      "name": "prosperaProperties",
      "outputs": [
        {
          "internalType": "bool",
          "name": "",
          "type": "bool"
        }
      ],
      "stateMutability": "view",
      "type": "function"
    },
    {
      "inputs": [
        {
          "internalType": "address",
          "name": "user",
          "type": "address"
        },
        {
          "internalType": "address",
          "name": "property",
          "type": "address"
        },
        {
          "internalType": "uint256",
          "name": "amount",
          "type": "uint256"
        }
      ],
      "name": "recordInvestment",
      "outputs": [],
      "stateMutability": "nonpayable",
      "type": "function"
    },
    {
      "inputs": [
        {
          "internalType": "address",
          "name": "user",
          "type": "address"
        },
        {
          "internalType": "string",
          "name": "permitId",
          "type": "string"
        }
      ],
      "name": "registerProspectsPermit",
      "outputs": [],
      "stateMutability": "nonpayable",
      "type": "function"
    },
    {
      "inputs": [],
      "name": "renounceOwnership",
      "outputs": [],
      "stateMutability": "nonpayable",
      "type": "function"
    },
    {
      "inputs": [
        {
          "internalType": "address",
          "name": "property",
          "type": "address"
        },
        {
          "internalType": "bool",
          "name": "requiresProspera",
          "type": "bool"
        },
        {
          "internalType": "bool",
          "name": "allowsInternational",
          "type": "bool"
        }
      ],
      "name": "setPropertyJurisdiction",
      "outputs": [],
      "stateMutability": "nonpayable",
      "type": "function"
    },
    {
      "inputs": [
        {
          "internalType": "address",
          "name": "newOwner",
          "type": "address"
        }
      ],
      "name": "transferOwnership",
      "outputs": [],
      "stateMutability": "nonpayable",
      "type": "function"
    },
    {
      "inputs": [
        {
          "internalType": "address",
          "name": "",
          "type": "address"
        },
        {
          "internalType": "address",
          "name": "",
          "type": "address"
        }
      ],
      "name": "userInvestments",
      "outputs": [
        {
          "internalType": "uint256",
          "name": "",
          "type": "uint256"
        }
      ],
      "stateMutability": "view",
      "type": "function"
    }
  ],
  "bytecode": "0x608060405234801561001057600080fd5b5061001a3361002c565b6000805460ff60a01b1916905561007c565b600080546001600160a01b038381166001600160a01b0319831681178455604051919092169283917f8be0079c531659141344cd1fd0a4f28419497f9722a3daafe3b4186f6b6457e09190a35050565b61123a8061008b6000396000f3fe608060405234801561001057600080fd5b506004361061012c5760003560e01c80637f8f5caf116100ad578063b7d9bf2511610071578063b7d9bf25146102df578063c351448a14610302578063cb349c0c1461032d578063d8ceb62214610340578063f2fde38b1461036457600080fd5b80637f8f5caf1461025b57806382d3d1531461027e5780638da5cb5b1461029e578063952d9f31146102b9578063a667d5e0146102cc57600080fd5b80635c975abb116100f45780635c975abb146101ea5780636641cc64146101fc5780636d62a4fe1461021f578063715018a614610240578063738bf2491461024857600080fd5b80630be4d888146101315780633c586db21461016f57806344c9954c146101845780635ae4145d146101b75780635bb7dc8a146101ca575b600080fd5b61015c61013f366004610c20565b600960209081526000928352604080842090915290825290205481565b6040519081526020015b60405180910390f35b61018261017d366004610c61565b610377565b005b6101a7610192366004610caa565b60056020526000908152604090205460ff1681565b6040519015158152602001610166565b6101826101c5366004610d91565b6103fa565b61015c6101d8366004610caa565b60036020526000908152604090205481565b600054600160a01b900460ff166101a7565b6101a761020a366004610caa565b60016020526000908152604090205460ff1681565b61023261022d366004610de8565b610485565b604051610166929190610e83565b6101826105e1565b610182610256366004610ea6565b6105f5565b6101a7610269366004610caa565b60066020526000908152604090205460ff1681565b61029161028c366004610caa565b6106c6565b6040516101669190610ee2565b6000546040516001600160a01b039091168152602001610166565b6102916102c7366004610caa565b610760565b6101826102da366004610ef5565b610779565b6101a76102ed366004610caa565b60076020526000908152604090205460ff1681565b61015c610310366004610f43565b805160208183018101805160088252928201919093012091525481565b61023261033b366004610ea6565b610875565b61035361034e366004610caa565b610932565b604051610166959493929190610f78565b610182610372366004610caa565b610ae1565b61037f610b5a565b6001600160a01b0383166000818152600660209081526040808320805487151560ff199182168117909255600784529382902080548715159516851790558151908152918201929092527fa8b7c3b78aa45281c9f62ff1f7bd17b39ca221806328a17c387f46261876d11691015b60405180910390a2505050565b610402610b5a565b6001600160a01b0383166000908152600160208181526040808420805460ff1916909317909255600290529020610439838261104a565b506001600160a01b03831660008181526003602052604090819020839055517f9c6d0ea99590d55d418d15b343f2caf0db5bfde9be3a13389f316a0f736c44f5906103ed908590610ee2565b6001600160a01b03841660009081526001602052604081205460609060ff1615806104c957506001600160a01b03851660009081526001602052604090205460ff16155b156104f25760006040518060600160405280602381526020016111e260239139915091506105d8565b6001600160a01b03861660009081526003602052604090205442118061052f57506001600160a01b03851660009081526003602052604090205442115b156105585760006040518060600160405280602381526020016111bf60239139915091506105d8565b6040516332cd270360e21b81526001600160a01b0380871660048301528516602482015260448101849052309063cb349c0c90606401600060405180830381865afa1580156105ab573d6000803e3d6000fd5b505050506040513d6000823e601f3d908101601f191682016040526105d3919081019061110a565b915091505b94509492505050565b6105e9610b5a565b6105f36000610bb4565b565b6001600160a01b03821660009081526006602052604090205460ff168061063457506001600160a01b03821660009081526007602052604090205460ff165b6106855760405162461bcd60e51b815260206004820152601760248201527f50726f7065727479206e6f74207265676973746572656400000000000000000060448201526064015b60405180910390fd5b6001600160a01b038084166000908152600960209081526040808320938616835292905290812080548392906106bc908490611197565b9091555050505050565b600460205260009081526040902080546106df90610fbf565b80601f016020809104026020016040519081016040528092919081815260200182805461070b90610fbf565b80156107585780601f1061072d57610100808354040283529160200191610758565b820191906000526020600020905b81548152906001019060200180831161073b57829003601f168201915b505050505081565b600260205260009081526040902080546106df90610fbf565b610781610b5a565b6001600160a01b03821660009081526001602052604090205460ff166107f35760405162461bcd60e51b815260206004820152602160248201527f55736572206d7573742068617665204b594320617070726f76616c20666972736044820152601d60fa1b606482015260840161067c565b6001600160a01b0382166000908152600460205260409020610815828261104a565b506001600160a01b03821660008181526005602052604090819020805460ff19166001179055517f9101279101da28b713e00ea52dffa131f622b90cff2d6680d87eba57c609c97890610869908490610ee2565b60405180910390a25050565b6001600160a01b03831660009081526001602052604081205460609060ff166108c957505060408051808201909152601081526f12d650c81b9bdd08185c1c1c9bdd995960821b602082015260009061092a565b6001600160a01b03851660009081526003602052604090205442111561091557505060408051808201909152600b81526a12d650c8195e1c1a5c995960aa1b602082015260009061092a565b50506040805160208101909152600081526001905b935093915050565b6001600160a01b03811660009081526001602052604081205460609082908190839060ff16801561097b57506001600160a01b0386166000908152600360205260409020544211155b6001600160a01b0387166000908152600260209081526040808320600383528184205460058452828520546004909452919093208354919260ff169184906109c290610fbf565b80601f01602080910402602001604051908101604052809291908181526020018280546109ee90610fbf565b8015610a3b5780601f10610a1057610100808354040283529160200191610a3b565b820191906000526020600020905b815481529060010190602001808311610a1e57829003601f168201915b50505050509350808054610a4e90610fbf565b80601f0160208091040260200160405190810160405280929190818152602001828054610a7a90610fbf565b8015610ac75780601f10610a9c57610100808354040283529160200191610ac7565b820191906000526020600020905b815481529060010190602001808311610aaa57829003601f168201915b505050505090509450945094509450945091939590929450565b610ae9610b5a565b6001600160a01b038116610b4e5760405162461bcd60e51b815260206004820152602660248201527f4f776e61626c653a206e6577206f776e657220697320746865207a65726f206160448201526564647265737360d01b606482015260840161067c565b610b5781610bb4565b50565b6000546001600160a01b031633146105f35760405162461bcd60e51b815260206004820181905260248201527f4f776e61626c653a2063616c6c6572206973206e6f7420746865206f776e6572604482015260640161067c565b600080546001600160a01b038381166001600160a01b0319831681178455604051919092169283917f8be0079c531659141344cd1fd0a4f28419497f9722a3daafe3b4186f6b6457e09190a35050565b80356001600160a01b0381168114610c1b57600080fd5b919050565b60008060408385031215610c3357600080fd5b610c3c83610c04565b9150610c4a60208401610c04565b90509250929050565b8015158114610b5757600080fd5b600080600060608486031215610c7657600080fd5b610c7f84610c04565b92506020840135610c8f81610c53565b91506040840135610c9f81610c53565b809150509250925092565b600060208284031215610cbc57600080fd5b610cc582610c04565b9392505050565b634e487b7160e01b600052604160045260246000fd5b604051601f8201601f1916810167ffffffffffffffff81118282101715610d0b57610d0b610ccc565b604052919050565b600067ffffffffffffffff821115610d2d57610d2d610ccc565b50601f01601f191660200190565b600082601f830112610d4c57600080fd5b8135610d5f610d5a82610d13565b610ce2565b818152846020838601011115610d7457600080fd5b816020850160208301376000918101602001919091529392505050565b600080600060608486031215610da657600080fd5b610daf84610c04565b9250602084013567ffffffffffffffff811115610dcb57600080fd5b610dd786828701610d3b565b925050604084013590509250925092565b60008060008060808587031215610dfe57600080fd5b610e0785610c04565b9350610e1560208601610c04565b9250610e2360408601610c04565b9396929550929360600135925050565b60005b83811015610e4e578181015183820152602001610e36565b50506000910152565b60008151808452610e6f816020860160208601610e33565b601f01601f19169290920160200192915050565b8215158152604060208201526000610e9e6040830184610e57565b949350505050565b600080600060608486031215610ebb57600080fd5b610ec484610c04565b9250610ed260208501610c04565b9150604084013590509250925092565b602081526000610cc56020830184610e57565b60008060408385031215610f0857600080fd5b610f1183610c04565b9150602083013567ffffffffffffffff811115610f2d57600080fd5b610f3985828601610d3b565b9150509250929050565b600060208284031215610f5557600080fd5b813567ffffffffffffffff811115610f6c57600080fd5b610e9e84828501610d3b565b851515815260a060208201526000610f9360a0830187610e57565b85604084015284151560608401528281036080840152610fb38185610e57565b98975050505050505050565b600181811c90821680610fd357607f821691505b602082108103610ff357634e487b7160e01b600052602260045260246000fd5b50919050565b601f821115611045576000816000526020600020601f850160051c810160208610156110225750805b601f850160051c820191505b818110156110415782815560010161102e565b5050505b505050565b815167ffffffffffffffff81111561106457611064610ccc565b611078816110728454610fbf565b84610ff9565b602080601f8311600181146110ad57600084156110955750858301515b600019600386901b1c1916600185901b178555611041565b600085815260208120601f198616915b828110156110dc578886015182559484019460019091019084016110bd565b50858210156110fa5787850151600019600388901b60f8161c191681555b5050505050600190811b01905550565b6000806040838503121561111d57600080fd5b825161112881610c53565b602084015190925067ffffffffffffffff81111561114557600080fd5b8301601f8101851361115657600080fd5b8051611164610d5a82610d13565b81815286602083850101111561117957600080fd5b61118a826020830160208601610e33565b8093505050509250929050565b808201808211156111b857634e487b7160e01b600052601160045260246000fd5b9291505056fe4b5943206578706972656420666f72206f6e65206f7220626f74682070617274696573426f74682070617274696573206d7573742068617665204b594320617070726f76616ca26469706673582212204571974b5c2e1bff97176bca5f810cca1d606d1101bc3d1ef4e667b78abff8df64736f6c63430008180033",
  "linkReferences": {},
  "deployedLinkReferences": {}
}