{
  "_format": "hh-sol-artifact-1",
  "contractName": "PropertyToken",
  "sourceName": "contracts/PropertyToken.sol",
  "abi": [
    {
      "inputs": [
        {
          "internalType": "string",
          "name": "_propertyName",
          "type": "string"
        },
        {
          "internalType": "string",
          "name": "_location",
          "type": "string"
        },
        {
          "internalType": "string",
          "name": "_jurisdiction",
          "type": "string"
        },
        {
          "internalType": "uint256",
          "name": "_totalPropertyValue",
          "type": "uint256"
        },
        {
          "internalType": "uint256",
          "name": "_totalTokens",
          "type": "uint256"
        },
        {
          "internalType": "uint256",
          "name": "_tokenPrice",
          "type": "uint256"
        },
        {
          "internalType": "address",
          "name": "_complianceManager",
          "type": "address"
        }
      ],
      "stateMutability": "nonpayable",
      "type": "constructor"
    },
    {
      "anonymous": false,
      "inputs": [
        {
          "indexed": true,
          "internalType": "address",
          "name": "owner",
          "type": "address"
        },
        {
          "indexed": true,
          "internalType": "address",
          "name": "spender",
          "type": "address"
        },
        {
          "indexed": false,
          "internalType": "uint256",
          "name": "value",
          "type": "uint256"
        }
      ],
      "name": "Approval",
      "type": "event"
    },
    {
      "anonymous": false,
      "inputs": [
        {
          "indexed": true,
          "internalType": "address",
          "name": "user",
          "type": "address"
        },
        {
          "indexed": false,
          "internalType": "uint256",
          "name": "amount",
          "type": "uint256"
        }
      ],
      "name": "DividendClaimed",
      "type": "event"
    },
    {
      "anonymous": false,
      "inputs": [
        {
          "indexed": false,
          "internalType": "uint256",
          "name": "totalAmount",
          "type": "uint256"
        },
        {
          "indexed": false,
          "internalType": "uint256",
          "name": "perToken",
          "type": "uint256"
        }
      ],
      "name": "DividendDistributed",
      "type": "event"
    },
    {
      "anonymous": false,
      "inputs": [
        {
          "indexed": true,
          "internalType": "address",
          "name": "previousOwner",
          "type": "address"
        },
        {
          "indexed": true,
          "internalType": "address",
          "name": "newOwner",
          "type": "address"
        }
      ],
      "name": "OwnershipTransferred",
      "type": "event"
    },
    {
      "anonymous": false,
      "inputs": [
        {
          "indexed": false,
          "internalType": "address",
          "name": "account",
          "type": "address"
        }
      ],
      "name": "Paused",
      "type": "event"
    },
    {
      "anonymous": false,
      "inputs": [],
      "name": "PropertyInfoUpdated",
      "type": "event"
    },
    {
      "anonymous": false,
      "inputs": [
        {
          "indexed": true,
          "internalType": "address",
          "name": "to",
          "type": "address"
        },
        {
          "indexed": false,
          "internalType": "uint256",
          "name": "amount",
          "type": "uint256"
        },
        {
          "indexed": false,
          "internalType": "uint256",
          "name": "price",
          "type": "uint256"
        }
      ],
      "name": "PropertyTokensIssued",
      "type": "event"
    },
    {
      "anonymous": false,
      "inputs": [
        {
          "indexed": false,
          "internalType": "bool",
          "name": "active",
          "type": "bool"
        }
      ],
      "name": "SaleStatusChanged",
      "type": "event"
    },
    {
      "anonymous": false,
      "inputs": [
        {
          "indexed": true,
          "internalType": "address",
          "name": "from",
          "type": "address"
        },
        {
          "indexed": true,
          "internalType": "address",
          "name": "to",
          "type": "address"
        },
        {
          "indexed": false,
          "internalType": "uint256",
          "name": "value",
          "type": "uint256"
        }
      ],
      "name": "Transfer",
      "type": "event"
    },
    {
      "anonymous": false,
      "inputs": [
        {
          "indexed": true,
          "internalType": "address",
          "name": "from",
          "type": "address"
        },
        {
          "indexed": true,
          "internalType": "address",
          "name": "to",
          "type": "address"
        },
        {
          "indexed": false,
          "internalType": "uint256",
          "name": "amount",
          "type": "uint256"
        },
        {
          "indexed": false,
          "internalType": "string",
          "name": "reason",
          "type": "string"
        }
      ],
      "name": "TransferRestricted",
      "type": "event"
    },
    {
      "anonymous": false,
      "inputs": [
        {
          "indexed": false,
          "internalType": "address",
          "name": "account",
          "type": "address"
        }
      ],
      "name": "Unpaused",
      "type": "event"
    },
    {
      "inputs": [],
      "name": "FAILURE_JURISDICTION",
      "outputs": [
        {
          "internalType": "uint8",
          "name": "",
          "type": "uint8"
        }
      ],
      "stateMutability": "view",
      "type": "function"
    },
    {
      "inputs": [],
      "name": "FAILURE_KYC",
      "outputs": [
        {
          "internalType": "uint8",
          "name": "",
          "type": "uint8"
        }
      ],
      "stateMutability": "view",
      "type": "function"
    },
    {
      "inputs": [],
      "name": "FAILURE_NON_WHITELIST",
      "outputs": [
        {
          "internalType": "uint8",
          "name": "",
          "type": "uint8"
        }
      ],
      "stateMutability": "view",
      "type": "function"
    },
    {
      "inputs": [],
      "name": "FAILURE_PAUSED",
      "outputs": [
        {
          "internalType": "uint8",
          "name": "",
          "type": "uint8"
        }
      ],
      "stateMutability": "view",
      "type": "function"
    },
    {
      "inputs": [],
      "name": "SUCCESS_CODE",
      "outputs": [
        {
          "internalType": "uint8",
          "name": "",
          "type": "uint8"
        }
      ],
      "stateMutability": "view",
      "type": "function"
    },
    {
      "inputs": [
        {
          "internalType": "address",
          "name": "owner",
          "type": "address"
        },
        {
          "internalType": "address",
          "name": "spender",
          "type": "address"
        }
      ],
      "name": "allowance",
      "outputs": [
        {
          "internalType": "uint256",
          "name": "",
          "type": "uint256"
        }
      ],
      "stateMutability": "view",
      "type": "function"
    },
    {
      "inputs": [
        {
          "internalType": "address",
          "name": "spender",
          "type": "address"
        },
        {
          "internalType": "uint256",
          "name": "amount",
          "type": "uint256"
        }
      ],
      "name": "approve",
      "outputs": [
        {
          "internalType": "bool",
          "name": "",
          "type": "bool"
        }
      ],
      "stateMutability": "nonpayable",
      "type": "function"
    },
    {
      "inputs": [
        {
          "internalType": "address",
          "name": "",
          "type": "address"
        }
      ],
      "name": "authorizedTransfers",
      "outputs": [
        {
          "internalType": "bool",
          "name": "",
          "type": "bool"
        }
      ],
      "stateMutability": "view",
      "type": "function"
    },
    {
      "inputs": [
        {
          "internalType": "address",
          "name": "account",
          "type": "address"
        }
      ],
      "name": "balanceOf",
      "outputs": [
        {
          "internalType": "uint256",
          "name": "",
          "type": "uint256"
        }
      ],
      "stateMutability": "view",
      "type": "function"
    },
    {
      "inputs": [],
      "name": "claimDividends",
      "outputs": [],
      "stateMutability": "nonpayable",
      "type": "function"
    },
    {
      "inputs": [],
      "name": "complianceManager",
      "outputs": [
        {
          "internalType": "contract ComplianceManager",
          "name": "",
          "type": "address"
        }
      ],
      "stateMutability": "view",
      "type": "function"
    },
    {
      "inputs": [],
      "name": "decimals",
      "outputs": [
        {
          "internalType": "uint8",
          "name": "",
          "type": "uint8"
        }
      ],
      "stateMutability": "view",
      "type": "function"
    },
    {
      "inputs": [
        {
          "internalType": "address",
          "name": "spender",
          "type": "address"
        },
        {
          "internalType": "uint256",
          "name": "subtractedValue",
          "type": "uint256"
        }
      ],
      "name": "decreaseAllowance",
      "outputs": [
        {
          "internalType": "bool",
          "name": "",
          "type": "bool"
        }
      ],
      "stateMutability": "nonpayable",
      "type": "function"
    },
    {
      "inputs": [
        {
          "internalType": "address",
          "name": "from",
          "type": "address"
        },
        {
          "internalType": "address",
          "name": "to",
          "type": "address"
        },
        {
          "internalType": "uint256",
          "name": "amount",
          "type": "uint256"
        }
      ],
      "name": "detectTransferRestriction",
      "outputs": [
        {
          "internalType": "uint8",
          "name": "",
          "type": "uint8"
        }
      ],
      "stateMutability": "view",
      "type": "function"
    },
    {
      "inputs": [],
      "name": "distributeDividends",
      "outputs": [],
      "stateMutability": "payable",
      "type": "function"
    },
    {
      "inputs": [
        {
          "internalType": "address",
          "name": "",
          "type": "address"
        }
      ],
      "name": "dividendsClaimed",
      "outputs": [
        {
          "internalType": "uint256",
          "name": "",
          "type": "uint256"
        }
      ],
      "stateMutability": "view",
      "type": "function"
    },
    {
      "inputs": [
        {
          "internalType": "address",
          "name": "",
          "type": "address"
        }
      ],
      "name": "dividendsEarned",
      "outputs": [
        {
          "internalType": "uint256",
          "name": "",
          "type": "uint256"
        }
      ],
      "stateMutability": "view",
      "type": "function"
    },
    {
      "inputs": [],
      "name": "endSale",
      "outputs": [],
      "stateMutability": "nonpayable",
      "type": "function"
    },
    {
      "inputs": [
        {
          "internalType": "uint8",
          "name": "",
          "type": "uint8"
        }
      ],
      "name": "errorMessages",
      "outputs": [
        {
          "internalType": "string",
          "name": "",
          "type": "string"
        }
      ],
      "stateMutability": "view",
      "type": "function"
    },
    {
      "inputs": [
        {
          "internalType": "address",
          "name": "user",
          "type": "address"
        }
      ],
      "name": "getDividendInfo",
      "outputs": [
        {
          "internalType": "uint256",
          "name": "totalEarned",
          "type": "uint256"
        },
        {
          "internalType": "uint256",
          "name": "claimed",
          "type": "uint256"
        },
        {
          "internalType": "uint256",
          "name": "claimable",
          "type": "uint256"
        }
      ],
      "stateMutability": "view",
      "type": "function"
    },
    {
      "inputs": [],
      "name": "getPropertyInfo",
      "outputs": [
        {
          "components": [
            {
              "internalType": "string",
              "name": "propertyName",
              "type": "string"
            },
            {
              "internalType": "string",
              "name": "location",
              "type": "string"
            },
            {
              "internalType": "string",
              "name": "jurisdiction",
              "type": "string"
            },
            {
              "internalType": "uint256",
              "name": "totalPropertyValue",
              "type": "uint256"
            },
            {
              "internalType": "uint256",
              "name": "totalTokens",
              "type": "uint256"
            },
            {
              "internalType": "string",
              "name": "propertyType",
              "type": "string"
            },
            {
              "internalType": "uint256",
              "name": "squareFeet",
              "type": "uint256"
            },
            {
              "internalType": "uint256",
              "name": "expectedYield",
              "type": "uint256"
            },
            {
              "internalType": "string",
              "name": "imageURI",
              "type": "string"
            },
            {
              "internalType": "bool",
              "name": "isActive",
              "type": "bool"
            }
          ],
          "internalType": "struct PropertyToken.PropertyInfo",
          "name": "",
          "type": "tuple"
        }
      ],
      "stateMutability": "view",
      "type": "function"
    },
    {
      "inputs": [],
      "name": "getSaleInfo",
      "outputs": [
        {
          "internalType": "uint256",
          "name": "_tokenPrice",
          "type": "uint256"
        },
        {
          "internalType": "uint256",
          "name": "_tokensSold",
          "type": "uint256"
        },
        {
          "internalType": "uint256",
          "name": "_tokensRemaining",
          "type": "uint256"
        },
        {
          "internalType": "uint256",
          "name": "_saleStartTime",
          "type": "uint256"
        },
        {
          "internalType": "uint256",
          "name": "_saleEndTime",
          "type": "uint256"
        },
        {
          "internalType": "bool",
          "name": "_saleActive",
          "type": "bool"
        }
      ],
      "stateMutability": "view",
      "type": "function"
    },
    {
      "inputs": [
        {
          "internalType": "address",
          "name": "spender",
          "type": "address"
        },
        {
          "internalType": "uint256",
          "name": "addedValue",
          "type": "uint256"
        }
      ],
      "name": "increaseAllowance",
      "outputs": [
        {
          "internalType": "bool",
          "name": "",
          "type": "bool"
        }
      ],
      "stateMutability": "nonpayable",
      "type": "function"
    },
    {
      "inputs": [
        {
          "internalType": "uint8",
          "name": "restrictionCode",
          "type": "uint8"
        }
      ],
      "name": "messageForTransferRestriction",
      "outputs": [
        {
          "internalType": "string",
          "name": "",
          "type": "string"
        }
      ],
      "stateMutability": "view",
      "type": "function"
    },
    {
      "inputs": [],
      "name": "name",
      "outputs": [
        {
          "internalType": "string",
          "name": "",
          "type": "string"
        }
      ],
      "stateMutability": "view",
      "type": "function"
    },
    {
      "inputs": [],
      "name": "owner",
      "outputs": [
        {
          "internalType": "address",
          "name": "",
          "type": "address"
        }
      ],
      "stateMutability": "view",
      "type": "function"
    },
    {
      "inputs": [],
      "name": "pause",
      "outputs": [],
      "stateMutability": "nonpayable",
      "type": "function"
    },
    {
      "inputs": [],
      "name": "paused",
      "outputs": [
        {
          "internalType": "bool",
          "name": "",
          "type": "bool"
        }
      ],
      "stateMutability": "view",
      "type": "function"
    },
    {
      "inputs": [],
      "name": "property",
      "outputs": [
        {
          "internalType": "string",
          "name": "propertyName",
          "type": "string"
        },
        {
          "internalType": "string",
          "name": "location",
          "type": "string"
        },
        {
          "internalType": "string",
          "name": "jurisdiction",
          "type": "string"
        },
        {
          "internalType": "uint256",
          "name": "totalPropertyValue",
          "type": "uint256"
        },
        {
          "internalType": "uint256",
          "name": "totalTokens",
          "type": "uint256"
        },
        {
          "internalType": "string",
          "name": "propertyType",
          "type": "string"
        },
        {
          "internalType": "uint256",
          "name": "squareFeet",
          "type": "uint256"
        },
        {
          "internalType": "uint256",
          "name": "expectedYield",
          "type": "uint256"
        },
        {
          "internalType": "string",
          "name": "imageURI",
          "type": "string"
        },
        {
          "internalType": "bool",
          "name": "isActive",
          "type": "bool"
        }
      ],
      "stateMutability": "view",
      "type": "function"
    },
    {
      "inputs": [
        {
          "internalType": "uint256",
          "name": "_tokenAmount",
          "type": "uint256"
        }
      ],
      "name": "purchaseTokens",
      "outputs": [],
      "stateMutability": "payable",
      "type": "function"
    },
    {
      "inputs": [],
      "name": "renounceOwnership",
      "outputs": [],
      "stateMutability": "nonpayable",
      "type": "function"
    },
    {
      "inputs": [],
      "name": "saleActive",
      "outputs": [
        {
          "internalType": "bool",
          "name": "",
          "type": "bool"
        }
      ],
      "stateMutability": "view",
      "type": "function"
    },
    {
      "inputs": [],
      "name": "saleEndTime",
      "outputs": [
        {
          "internalType": "uint256",
          "name": "",
          "type": "uint256"
        }
      ],
      "stateMutability": "view",
      "type": "function"
    },
    {
      "inputs": [],
      "name": "saleStartTime",
      "outputs": [
        {
          "internalType": "uint256",
          "name": "",
          "type": "uint256"
        }
      ],
      "stateMutability": "view",
      "type": "function"
    },
    {
      "inputs": [
        {
          "internalType": "address",
          "name": "_address",
          "type": "address"
        },
        {
          "internalType": "bool",
          "name": "_authorized",
          "type": "bool"
        }
      ],
      "name": "setAuthorizedTransfer",
      "outputs": [],
      "stateMutability": "nonpayable",
      "type": "function"
    },
    {
      "inputs": [
        {
          "internalType": "uint256",
          "name": "_duration",
          "type": "uint256"
        }
      ],
      "name": "startSale",
      "outputs": [],
      "stateMutability": "nonpayable",
      "type": "function"
    },
    {
      "inputs": [],
      "name": "symbol",
      "outputs": [
        {
          "internalType": "string",
          "name": "",
          "type": "string"
        }
      ],
      "stateMutability": "view",
      "type": "function"
    },
    {
      "inputs": [],
      "name": "tokenPrice",
      "outputs": [
        {
          "internalType": "uint256",
          "name": "",
          "type": "uint256"
        }
      ],
      "stateMutability": "view",
      "type": "function"
    },
    {
      "inputs": [],
      "name": "tokensSold",
      "outputs": [
        {
          "internalType": "uint256",
          "name": "",
          "type": "uint256"
        }
      ],
      "stateMutability": "view",
      "type": "function"
    },
    {
      "inputs": [],
      "name": "totalDividendsDistributed",
      "outputs": [
        {
          "internalType": "uint256",
          "name": "",
          "type": "uint256"
        }
      ],
      "stateMutability": "view",
      "type": "function"
    },
    {
      "inputs": [],
      "name": "totalSupply",
      "outputs": [
        {
          "internalType": "uint256",
          "name": "",
          "type": "uint256"
        }
      ],
      "stateMutability": "view",
      "type": "function"
    },
    {
      "inputs": [
        {
          "internalType": "address",
          "name": "to",
          "type": "address"
        },
        {
          "internalType": "uint256",
          "name": "amount",
          "type": "uint256"
        }
      ],
      "name": "transfer",
      "outputs": [
        {
          "internalType": "bool",
          "name": "",
          "type": "bool"
        }
      ],
      "stateMutability": "nonpayable",
      "type": "function"
    },
    {
      "inputs": [
        {
          "internalType": "address",
          "name": "from",
          "type": "address"
        },
        {
          "internalType": "address",
          "name": "to",
          "type": "address"
        },
        {
          "internalType": "uint256",
          "name": "amount",
          "type": "uint256"
        }
      ],
      "name": "transferFrom",
      "outputs": [
        {
          "internalType": "bool",
          "name": "",
          "type": "bool"
        }
      ],
      "stateMutability": "nonpayable",
      "type": "function"
    },
    {
      "inputs": [
        {
          "internalType": "address",
          "name": "newOwner",
          "type": "address"
        }
      ],
      "name": "transferOwnership",
      "outputs": [],
      "stateMutability": "nonpayable",
      "type": "function"
    },
    {
      "inputs": [],
      "name": "unpause",
      "outputs": [],
      "stateMutability": "nonpayable",
      "type": "function"
    },
    {
      "inputs": [
        {
          "internalType": "string",
          "name": "_propertyType",
          "type": "string"
        },
        {
          "internalType": "uint256",
          "name": "_squareFeet",
          "type": "uint256"
        },
        {
          "internalType": "uint256",
          "name": "_expectedYield",
          "type": "uint256"
        },
        {
          "internalType": "string",
          "name": "_imageURI",
          "type": "string"
        }
      ],
      "name": "updatePropertyInfo",
      "outputs": [],
      "stateMutability": "nonpayable",
      "type": "function"
    },
    {
      "inputs": [
        {
          "internalType": "uint256",
          "name": "_newPrice",
          "type": "uint256"
        }
      ],
      "name": "updateTokenPrice",
      "outputs": [],
      "stateMutability": "nonpayable",
      "type": "function"
    },
    {
      "inputs": [],
      "name": "withdraw",
      "outputs": [],
      "stateMutability": "nonpayable",
      "type": "function"
    },
    {
      "stateMutability": "payable",
      "type": "receive"
    }
  ],
  "bytecode": "0x60806040523480156200001157600080fd5b506040516200370e3803806200370e833981016040819052620000349162000843565b8660405160200162000047919062000916565b60408051601f1981840301815282820190915260038083526211941560ea1b60208401529091906200007a8382620009d7565b506004620000898282620009d7565b505050620000a6620000a06200041860201b60201c565b6200041c565b6005805460ff60a01b1916905560016006819055604080516101408101825289815260208082018a9052818301899052606082018890526080820187905282518082018452600080825260a084019190915260c0830181905260e08301819052835191820190935291825261010081019190915261012081019190915280516007908190620001369082620009d7565b50602082015160018201906200014d9082620009d7565b5060408201516002820190620001649082620009d7565b50606082015160038201556080820151600482015560a082015160058201906200018f9082620009d7565b5060c0820151600682015560e082015160078201556101008201516008820190620001bb9082620009d7565b5061012091909101516009909101805460ff19169115159190911790556012829055601180546001600160a01b0319166001600160a01b03831617905560408051808201909152601381527f5472616e73666572207375636365737366756c0000000000000000000000000060208083019190915260008052601b90527f584f46c60af19681376031579adb04a2416e54ee5505351c2a8435e3766026ea90620002669082620009d7565b5060408051808201909152601781527f5472616e73666572206e6f7420617574686f72697a65640000000000000000006020808301919091526001600052601b90527f9fafca4c9c0d5c2cbf85f49fd8ab8212430ce78c2a0cb75b51e0f9c4f9ace00390620002d69082620009d7565b5060408051808201909152601281527110dbdb9d1c9858dd081a5cc81c185d5cd95960721b6020808301919091526002600052601b90527f1dd2f4b94a51cfb409e6e317a497f7cfd9013960a1c723f830c49c05a25f08a5906200033b9082620009d7565b5060408051808201909152601981527f4b594320766572696669636174696f6e207265717569726564000000000000006020808301919091526003600052601b90527f804a3d0621e73505f5f0c57c922f3e57d6b48e175551184eb12f80d7b4a9c78390620003ab9082620009d7565b50604051806060016040528060218152602001620036ed602191396004600052601b6020527fa952f8c0f40734b22d2328e0f7ff57eeffee78885b9cf2147ff941cc37e1c86e90620003fe9082620009d7565b506200040b30846200046e565b5050505050505062000be2565b3390565b600580546001600160a01b038381166001600160a01b0319831681179093556040519116919082907f8be0079c531659141344cd1fd0a4f28419497f9722a3daafe3b4186f6b6457e090600090a35050565b6001600160a01b038216620004ca5760405162461bcd60e51b815260206004820152601f60248201527f45524332303a206d696e7420746f20746865207a65726f20616464726573730060448201526064015b60405180910390fd5b620004d86000838362000543565b8060026000828254620004ec919062000aa3565b90915550506001600160a01b038216600081815260208181526040808320805486019055518481527fddf252ad1be2c89b69c2b068fc378daa952ba7f163c4a11628f55a4df523b3ef910160405180910390a35050565b6001600160a01b03831615806200056157506001600160a01b038216155b156200056c57505050565b60006200057b84848462000627565b905060ff8116156200061c57826001600160a01b0316846001600160a01b03167f5f2754c1b2dfacb1c9effb2e361aaccf9c3e219aa1dfeb2cc3e4c6f8b4444c1984601b60008660ff1660ff168152602001908152602001600020604051620005e692919062000b50565b60405180910390a360ff81166000908152601b602052604090819020905162461bcd60e51b8152620004c1919060040162000b73565b50505050565b505050565b60006200063d600554600160a01b900460ff1690565b156200064c575060026200076f565b6001600160a01b0384163014806200066c57506001600160a01b03831630145b156200067b575060006200076f565b6001600160a01b0384166000908152601a602052604090205460ff1680620006bb57506001600160a01b0383166000908152601a602052604090205460ff165b15620006ca575060006200076f565b6011546040516336b1527f60e11b81526001600160a01b0386811660048301528581166024830152306044830152606482018590526000921690636d62a4fe90608401600060405180830381865afa1580156200072b573d6000803e3d6000fd5b505050506040513d6000823e601f3d908101601f1916820160405262000755919081019062000b88565b50905080620007695760039150506200076f565b60009150505b9392505050565b634e487b7160e01b600052604160045260246000fd5b60005b83811015620007a95781810151838201526020016200078f565b50506000910152565b600082601f830112620007c457600080fd5b81516001600160401b0380821115620007e157620007e162000776565b604051601f8301601f19908116603f011681019082821181831017156200080c576200080c62000776565b816040528381528660208588010111156200082657600080fd5b620008398460208301602089016200078c565b9695505050505050565b600080600080600080600060e0888a0312156200085f57600080fd5b87516001600160401b03808211156200087757600080fd5b620008858b838c01620007b2565b985060208a01519150808211156200089c57600080fd5b620008aa8b838c01620007b2565b975060408a0151915080821115620008c157600080fd5b50620008d08a828b01620007b2565b60608a015160808b015160a08c015160c08d01519399509197509550935090506001600160a01b03811681146200090657600080fd5b8091505092959891949750929550565b660233930b1ba30960cd1b8152600082516200093a8160078501602087016200078c565b9190910160070192915050565b600181811c908216806200095c57607f821691505b6020821081036200097d57634e487b7160e01b600052602260045260246000fd5b50919050565b601f82111562000622576000816000526020600020601f850160051c81016020861015620009ae5750805b601f850160051c820191505b81811015620009cf57828155600101620009ba565b505050505050565b81516001600160401b03811115620009f357620009f362000776565b62000a0b8162000a04845462000947565b8462000983565b602080601f83116001811462000a43576000841562000a2a5750858301515b600019600386901b1c1916600185901b178555620009cf565b600085815260208120601f198616915b8281101562000a745788860151825594840194600190910190840162000a53565b508582101562000a935787850151600019600388901b60f8161c191681555b5050505050600190811b01905550565b8082018082111562000ac557634e487b7160e01b600052601160045260246000fd5b92915050565b6000815462000ada8162000947565b80855260206001838116801562000afa576001811462000b155762000b45565b60ff1985168884015283151560051b88018301955062000b45565b866000528260002060005b8581101562000b3d5781548a820186015290830190840162000b20565b890184019650505b505050505092915050565b82815260406020820152600062000b6b604083018462000acb565b949350505050565b6020815260006200076f602083018462000acb565b6000806040838503121562000b9c57600080fd5b8251801515811462000bad57600080fd5b60208401519092506001600160401b0381111562000bca57600080fd5b62000bd885828601620007b2565b9150509250929050565b612afb8062000bf26000396000f3fe6080604052600436106102975760003560e01c8063668038e01161015a57806395d89b41116100c1578063d4ce14151161007a578063d4ce1415146107ab578063db83694c146107cb578063dd62ed3e1461080f578063ed338ff11461082f578063f2fde38b14610845578063ff7bce231461086557600080fd5b806395d89b41146106d6578063a457c2d7146106eb578063a9059cbb1461070b578063ab7f2d231461072b578063b2e6819b14610740578063c746a0aa1461077b57600080fd5b80637b97008d116101135780637b97008d146106305780637f4ab1dd146106435780637ff9b596146106635780638456cb591461067957806385a6b3ae1461068e5780638da5cb5b146106a457600080fd5b8063668038e014610576578063676c0d771461058b57806368428a1b146105ab57806370a08231146105c5578063715018a6146105fb57806378016b031461061057600080fd5b8063380d831b116101fe57806341b87bea116101b757806341b87bea146104bd578063518ab2a8146104ea5780635bcad588146105005780635c975abb146105205780635cffa74c1461053f5780635de5f3be1461055457600080fd5b8063380d831b14610429578063395093511461043e5780633bf82aa01461045e5780633ccfd60b1461047e5780633f4ba83a146104935780633f713709146104a857600080fd5b8063176fd3f011610250578063176fd3f01461038a57806318160ddd146103b55780631cbaee2d146103ca5780631fb45ec0146103e057806323b872dd146103f5578063313ce5671461041557600080fd5b806303c83302146102a357806306fdde03146102ad578063095ea7b3146102d85780630e3ab61d146103085780630e969a0514610328578063124403b91461034f57600080fd5b3661029e57005b600080fd5b6102ab610885565b005b3480156102b957600080fd5b506102c261098f565b6040516102cf91906123ac565b60405180910390f35b3480156102e457600080fd5b506102f86102f33660046123db565b610a21565b60405190151581526020016102cf565b34801561031457600080fd5b506102ab610323366004612405565b610a3b565b34801561033457600080fd5b5061033d600081565b60405160ff90911681526020016102cf565b34801561035b57600080fd5b5061037c61036a36600461241e565b60186020526000908152604090205481565b6040519081526020016102cf565b34801561039657600080fd5b5061039f610a97565b6040516102cf9a99989796959493929190612439565b3480156103c157600080fd5b5060025461037c565b3480156103d657600080fd5b5061037c60145481565b3480156103ec57600080fd5b5061033d600181565b34801561040157600080fd5b506102f86104103660046124d1565b610d82565b34801561042157600080fd5b50601261033d565b34801561043557600080fd5b506102ab610da8565b34801561044a57600080fd5b506102f86104593660046123db565b610df5565b34801561046a57600080fd5b506102ab61047936600461251b565b610e17565b34801561048a57600080fd5b506102ab610e4a565b34801561049f57600080fd5b506102ab610ed7565b3480156104b457600080fd5b5061033d600281565b3480156104c957600080fd5b5061037c6104d836600461241e565b60196020526000908152604090205481565b3480156104f657600080fd5b5061037c60135481565b34801561050c57600080fd5b506102c261051b366004612552565b610ee9565b34801561052c57600080fd5b50600554600160a01b900460ff166102f8565b34801561054b57600080fd5b5061033d600481565b34801561056057600080fd5b50610569610f83565b6040516102cf9190612575565b34801561058257600080fd5b506102ab611301565b34801561059757600080fd5b506102ab6105a6366004612405565b6114c4565b3480156105b757600080fd5b506016546102f89060ff1681565b3480156105d157600080fd5b5061037c6105e036600461241e565b6001600160a01b031660009081526020819052604090205490565b34801561060757600080fd5b506102ab6114d1565b34801561061c57600080fd5b506102ab61062b36600461271e565b6114e3565b6102ab61063e366004612405565b61153e565b34801561064f57600080fd5b506102c261065e366004612552565b6118c6565b34801561066f57600080fd5b5061037c60125481565b34801561068557600080fd5b506102ab61196c565b34801561069a57600080fd5b5061037c60175481565b3480156106b057600080fd5b506005546001600160a01b03165b6040516001600160a01b0390911681526020016102cf565b3480156106e257600080fd5b506102c261197c565b3480156106f757600080fd5b506102f86107063660046123db565b61198b565b34801561071757600080fd5b506102f86107263660046123db565b611a11565b34801561073757600080fd5b5061033d600381565b34801561074c57600080fd5b5061076061075b36600461241e565b611a1f565b604080519384526020840192909252908201526060016102cf565b34801561078757600080fd5b506102f861079636600461241e565b601a6020526000908152604090205460ff1681565b3480156107b757600080fd5b5061033d6107c63660046124d1565b611ac1565b3480156107d757600080fd5b506107e0611bfb565b6040805196875260208701959095529385019290925260608401526080830152151560a082015260c0016102cf565b34801561081b57600080fd5b5061037c61082a366004612795565b611c64565b34801561083b57600080fd5b5061037c60155481565b34801561085157600080fd5b506102ab61086036600461241e565b611c8f565b34801561087157600080fd5b506011546106be906001600160a01b031681565b61088d611d05565b600034116108e25760405162461bcd60e51b815260206004820152601a60248201527f4e6f206469766964656e647320746f206469737472696275746500000000000060448201526064015b60405180910390fd5b6000601354116109295760405162461bcd60e51b8152602060048201526012602482015271139bc81d1bdad95b9cc81cdbdb19081e595d60721b60448201526064016108d9565b60006013543461093991906127de565b9050346017600082825461094d9190612800565b909155505060408051348152602081018390527f2f588cf4bb0247b0f3f60e06187f92e6fd1deaabb56e2bcc567235233787132791015b60405180910390a150565b60606003805461099e90612813565b80601f01602080910402602001604051908101604052809291908181526020018280546109ca90612813565b8015610a175780601f106109ec57610100808354040283529160200191610a17565b820191906000526020600020905b8154815290600101906020018083116109fa57829003601f168201915b5050505050905090565b600033610a2f818585611d5f565b60019150505b92915050565b610a43611d05565b426014819055610a54908290612800565b6015556016805460ff191660019081179091556040519081527ff3637cdf61687bb87179d2da614bc1f4aa93c3cbf40282ccd0a15ecad9184cc190602001610984565b600780548190610aa690612813565b80601f0160208091040260200160405190810160405280929190818152602001828054610ad290612813565b8015610b1f5780601f10610af457610100808354040283529160200191610b1f565b820191906000526020600020905b815481529060010190602001808311610b0257829003601f168201915b505050505090806001018054610b3490612813565b80601f0160208091040260200160405190810160405280929190818152602001828054610b6090612813565b8015610bad5780601f10610b8257610100808354040283529160200191610bad565b820191906000526020600020905b815481529060010190602001808311610b9057829003601f168201915b505050505090806002018054610bc290612813565b80601f0160208091040260200160405190810160405280929190818152602001828054610bee90612813565b8015610c3b5780601f10610c1057610100808354040283529160200191610c3b565b820191906000526020600020905b815481529060010190602001808311610c1e57829003601f168201915b505050505090806003015490806004015490806005018054610c5c90612813565b80601f0160208091040260200160405190810160405280929190818152602001828054610c8890612813565b8015610cd55780601f10610caa57610100808354040283529160200191610cd5565b820191906000526020600020905b815481529060010190602001808311610cb857829003601f168201915b505050505090806006015490806007015490806008018054610cf690612813565b80601f0160208091040260200160405190810160405280929190818152602001828054610d2290612813565b8015610d6f5780601f10610d4457610100808354040283529160200191610d6f565b820191906000526020600020905b815481529060010190602001808311610d5257829003601f168201915b5050506009909301549192505060ff168a565b600033610d90858285611e83565b610d9b858585611efd565b60019150505b9392505050565b610db0611d05565b6016805460ff1916905542601555604051600081527ff3637cdf61687bb87179d2da614bc1f4aa93c3cbf40282ccd0a15ecad9184cc1906020015b60405180910390a1565b600033610a2f818585610e088383611c64565b610e129190612800565b611d5f565b610e1f611d05565b6001600160a01b03919091166000908152601a60205260409020805460ff1916911515919091179055565b610e52611d05565b4780610e995760405162461bcd60e51b81526020600482015260166024820152754e6f2062616c616e636520746f20776974686472617760501b60448201526064016108d9565b6005546040516001600160a01b039091169082156108fc029083906000818181858888f19350505050158015610ed3573d6000803e3d6000fd5b5050565b610edf611d05565b610ee76120ac565b565b601b6020526000908152604090208054610f0290612813565b80601f0160208091040260200160405190810160405280929190818152602001828054610f2e90612813565b8015610f7b5780601f10610f5057610100808354040283529160200191610f7b565b820191906000526020600020905b815481529060010190602001808311610f5e57829003601f168201915b505050505081565b610fdb6040518061014001604052806060815260200160608152602001606081526020016000815260200160008152602001606081526020016000815260200160008152602001606081526020016000151581525090565b600760405180610140016040529081600082018054610ff990612813565b80601f016020809104026020016040519081016040528092919081815260200182805461102590612813565b80156110725780601f1061104757610100808354040283529160200191611072565b820191906000526020600020905b81548152906001019060200180831161105557829003601f168201915b5050505050815260200160018201805461108b90612813565b80601f01602080910402602001604051908101604052809291908181526020018280546110b790612813565b80156111045780601f106110d957610100808354040283529160200191611104565b820191906000526020600020905b8154815290600101906020018083116110e757829003601f168201915b5050505050815260200160028201805461111d90612813565b80601f016020809104026020016040519081016040528092919081815260200182805461114990612813565b80156111965780601f1061116b57610100808354040283529160200191611196565b820191906000526020600020905b81548152906001019060200180831161117957829003601f168201915b5050505050815260200160038201548152602001600482015481526020016005820180546111c390612813565b80601f01602080910402602001604051908101604052809291908181526020018280546111ef90612813565b801561123c5780601f106112115761010080835404028352916020019161123c565b820191906000526020600020905b81548152906001019060200180831161121f57829003601f168201915b50505050508152602001600682015481526020016007820154815260200160088201805461126990612813565b80601f016020809104026020016040519081016040528092919081815260200182805461129590612813565b80156112e25780601f106112b7576101008083540402835291602001916112e2565b820191906000526020600020905b8154815290600101906020018083116112c557829003601f168201915b50505091835250506009919091015460ff161515602090910152919050565b6113096120fc565b33600090815260208190526040902054806113575760405162461bcd60e51b815260206004820152600e60248201526d139bc81d1bdad95b9cc81a195b1960921b60448201526064016108d9565b600060135460175461136991906127de565b90506000611377828461284d565b33600090815260186020526040812054919250906113959083612864565b9050600081116113df5760405162461bcd60e51b81526020600482015260156024820152744e6f206469766964656e647320746f20636c61696d60581b60448201526064016108d9565b8047101561142f5760405162461bcd60e51b815260206004820152601d60248201527f496e73756666696369656e7420636f6e74726163742062616c616e636500000060448201526064016108d9565b336000908152601860205260408120805483929061144e908490612800565b9091555050604051339082156108fc029083906000818181858888f19350505050158015611480573d6000803e3d6000fd5b5060405181815233907f5efa67896a23b651b741b525caacba039c00ca7853be3de8eb1f4269e8669c569060200160405180910390a250505050610ee76001600655565b6114cc611d05565b601255565b6114d9611d05565b610ee76000612155565b6114eb611d05565b600c6114f785826128c7565b50600d839055600e829055600f61150e82826128c7565b506040517f383cb064e2b94d1cd0d6ebdb04499e0074857b877fb815e243196102833085cd90600090a150505050565b6115466120fc565b61154e6121a7565b60165460ff166115955760405162461bcd60e51b815260206004820152601260248201527153616c65206973206e6f742061637469766560701b60448201526064016108d9565b60145442101580156115a957506015544211155b6115eb5760405162461bcd60e51b815260206004820152601360248201527214d85b19481c195c9a5bd9081a5b9d985b1a59606a1b60448201526064016108d9565b600081116116475760405162461bcd60e51b815260206004820152602360248201527f546f6b656e20616d6f756e74206d75737420626520677265617465722074686160448201526206e20360ec1b60648201526084016108d9565b600060125482611657919061284d565b9050803410156116a05760405162461bcd60e51b8152602060048201526014602482015273125b9cdd59999a58da595b9d081c185e5b595b9d60621b60448201526064016108d9565b6011546040516332cd270360e21b81523360048201523060248201526044810184905260009182916001600160a01b039091169063cb349c0c90606401600060405180830381865afa1580156116fa573d6000803e3d6000fd5b505050506040513d6000823e601f3d908101601f191682016040526117229190810190612987565b915091508181906117465760405162461bcd60e51b81526004016108d991906123ac565b50306000908152602081905260409020548411156117a65760405162461bcd60e51b815260206004820152601b60248201527f4e6f7420656e6f75676820746f6b656e7320617661696c61626c65000000000060448201526064016108d9565b6117b1303386611efd565b83601360008282546117c39190612800565b909155505060115460405163738bf24960e01b8152336004820152306024820152604481018690526001600160a01b039091169063738bf24990606401600060405180830381600087803b15801561181a57600080fd5b505af115801561182e573d6000803e3d6000fd5b505050508234111561187257336108fc6118488534612864565b6040518115909202916000818181858888f19350505050158015611870573d6000803e3d6000fd5b505b60125460405133917fcc1ea2adea5cfc4a5307c9c0aa9e61a3b27ce14e266ce6a59f49bbddb9f0ac48916118ae91888252602082015260400190565b60405180910390a25050506118c36001600655565b50565b60ff81166000908152601b602052604090208054606091906118e790612813565b80601f016020809104026020016040519081016040528092919081815260200182805461191390612813565b80156119605780601f1061193557610100808354040283529160200191611960565b820191906000526020600020905b81548152906001019060200180831161194357829003601f168201915b50505050509050919050565b611974611d05565b610ee76121f4565b60606004805461099e90612813565b600033816119998286611c64565b9050838110156119f95760405162461bcd60e51b815260206004820152602560248201527f45524332303a2064656372656173656420616c6c6f77616e63652062656c6f77604482015264207a65726f60d81b60648201526084016108d9565b611a068286868403611d5f565b506001949350505050565b600033610a2f818585611efd565b600080600080611a44856001600160a01b031660009081526020819052604090205490565b9050601354600003611a6157600080600093509350935050611aba565b6000601354601754611a7391906127de565b9050611a7f818361284d565b6001600160a01b0387166000908152601860205260409020549095509350838511611aab576000611ab5565b611ab58486612864565b925050505b9193909250565b600554600090600160a01b900460ff1615611ade57506002610da1565b6001600160a01b038416301480611afd57506001600160a01b03831630145b15611b0a57506000610da1565b6001600160a01b0384166000908152601a602052604090205460ff1680611b4957506001600160a01b0383166000908152601a602052604090205460ff165b15611b5657506000610da1565b6011546040516336b1527f60e11b81526001600160a01b0386811660048301528581166024830152306044830152606482018590526000921690636d62a4fe90608401600060405180830381865afa158015611bb6573d6000803e3d6000fd5b505050506040513d6000823e601f3d908101601f19168201604052611bde9190810190612987565b50905080611bf0576003915050610da1565b506000949350505050565b600080600080600080601254601354611c29306001600160a01b031660009081526020819052604090205490565b60145460155460165460ff168015611c4357506014544210155b8015611c5157506015544211155b949b939a50919850965094509092509050565b6001600160a01b03918216600090815260016020908152604080832093909416825291909152205490565b611c97611d05565b6001600160a01b038116611cfc5760405162461bcd60e51b815260206004820152602660248201527f4f776e61626c653a206e6577206f776e657220697320746865207a65726f206160448201526564647265737360d01b60648201526084016108d9565b6118c381612155565b6005546001600160a01b03163314610ee75760405162461bcd60e51b815260206004820181905260248201527f4f776e61626c653a2063616c6c6572206973206e6f7420746865206f776e657260448201526064016108d9565b6001600160a01b038316611dc15760405162461bcd60e51b8152602060048201526024808201527f45524332303a20617070726f76652066726f6d20746865207a65726f206164646044820152637265737360e01b60648201526084016108d9565b6001600160a01b038216611e225760405162461bcd60e51b815260206004820152602260248201527f45524332303a20617070726f766520746f20746865207a65726f206164647265604482015261737360f01b60648201526084016108d9565b6001600160a01b0383811660008181526001602090815260408083209487168084529482529182902085905590518481527f8c5be1e5ebec7d5bd14f71427d1e84f3dd0314c0f7b2291e5b200ac8c7c3b925910160405180910390a3505050565b6000611e8f8484611c64565b90506000198114611ef75781811015611eea5760405162461bcd60e51b815260206004820152601d60248201527f45524332303a20696e73756666696369656e7420616c6c6f77616e636500000060448201526064016108d9565b611ef78484848403611d5f565b50505050565b6001600160a01b038316611f615760405162461bcd60e51b815260206004820152602560248201527f45524332303a207472616e736665722066726f6d20746865207a65726f206164604482015264647265737360d81b60648201526084016108d9565b6001600160a01b038216611fc35760405162461bcd60e51b815260206004820152602360248201527f45524332303a207472616e7366657220746f20746865207a65726f206164647260448201526265737360e81b60648201526084016108d9565b611fce838383612237565b6001600160a01b038316600090815260208190526040902054818110156120465760405162461bcd60e51b815260206004820152602660248201527f45524332303a207472616e7366657220616d6f756e7420657863656564732062604482015265616c616e636560d01b60648201526084016108d9565b6001600160a01b03848116600081815260208181526040808320878703905593871680835291849020805487019055925185815290927fddf252ad1be2c89b69c2b068fc378daa952ba7f163c4a11628f55a4df523b3ef910160405180910390a3611ef7565b6120b461230c565b6005805460ff60a01b191690557f5db9ee0a495bf2e6ff9c91a7834c1ba4fdd244a5e8aa4e537bd38aeae4b073aa335b6040516001600160a01b039091168152602001610deb565b60026006540361214e5760405162461bcd60e51b815260206004820152601f60248201527f5265656e7472616e637947756172643a207265656e7472616e742063616c6c0060448201526064016108d9565b6002600655565b600580546001600160a01b038381166001600160a01b0319831681179093556040519116919082907f8be0079c531659141344cd1fd0a4f28419497f9722a3daafe3b4186f6b6457e090600090a35050565b600554600160a01b900460ff1615610ee75760405162461bcd60e51b815260206004820152601060248201526f14185d5cd8589b194e881c185d5cd95960821b60448201526064016108d9565b6121fc6121a7565b6005805460ff60a01b1916600160a01b1790557f62e78cea01bee320cd4e420270b5ea74000d11b0c9f74754ebdbfc544b05a2586120e43390565b6001600160a01b038316158061225457506001600160a01b038216155b1561225e57505050565b600061226b848484611ac1565b905060ff811615611ef757826001600160a01b0316846001600160a01b03167f5f2754c1b2dfacb1c9effb2e361aaccf9c3e219aa1dfeb2cc3e4c6f8b4444c1984601b60008660ff1660ff1681526020019081526020016000206040516122d3929190612a91565b60405180910390a360ff81166000908152601b602052604090819020905162461bcd60e51b81526108d99190600401612ab2565b505050565b600554600160a01b900460ff16610ee75760405162461bcd60e51b815260206004820152601460248201527314185d5cd8589b194e881b9bdd081c185d5cd95960621b60448201526064016108d9565b60005b8381101561237757818101518382015260200161235f565b50506000910152565b6000815180845261239881602086016020860161235c565b601f01601f19169290920160200192915050565b602081526000610da16020830184612380565b80356001600160a01b03811681146123d657600080fd5b919050565b600080604083850312156123ee57600080fd5b6123f7836123bf565b946020939093013593505050565b60006020828403121561241757600080fd5b5035919050565b60006020828403121561243057600080fd5b610da1826123bf565b600061014080835261244d8184018e612380565b90508281036020840152612461818d612380565b90508281036040840152612475818c612380565b905089606084015288608084015282810360a08401526124958189612380565b90508660c08401528560e08401528281036101008401526124b68186612380565b9150508215156101208301529b9a5050505050505050505050565b6000806000606084860312156124e657600080fd5b6124ef846123bf565b92506124fd602085016123bf565b9150604084013590509250925092565b80151581146118c357600080fd5b6000806040838503121561252e57600080fd5b612537836123bf565b915060208301356125478161250d565b809150509250929050565b60006020828403121561256457600080fd5b813560ff81168114610da157600080fd5b6020815260008251610140806020850152612594610160850183612380565b91506020850151601f19808685030160408701526125b28483612380565b935060408701519150808685030160608701526125cf8483612380565b935060608701516080870152608087015160a087015260a08701519150808685030160c08701526126008483612380565b935060c087015160e087015260e087015191506101008281880152808801519250506101208187860301818801526126388584612380565b9450808801519250505061264f8286018215159052565b5090949350505050565b634e487b7160e01b600052604160045260246000fd5b604051601f8201601f1916810167ffffffffffffffff8111828210171561269857612698612659565b604052919050565b600067ffffffffffffffff8211156126ba576126ba612659565b50601f01601f191660200190565b600082601f8301126126d957600080fd5b81356126ec6126e7826126a0565b61266f565b81815284602083860101111561270157600080fd5b816020850160208301376000918101602001919091529392505050565b6000806000806080858703121561273457600080fd5b843567ffffffffffffffff8082111561274c57600080fd5b612758888389016126c8565b95506020870135945060408701359350606087013591508082111561277c57600080fd5b50612789878288016126c8565b91505092959194509250565b600080604083850312156127a857600080fd5b6127b1836123bf565b91506127bf602084016123bf565b90509250929050565b634e487b7160e01b600052601160045260246000fd5b6000826127fb57634e487b7160e01b600052601260045260246000fd5b500490565b80820180821115610a3557610a356127c8565b600181811c9082168061282757607f821691505b60208210810361284757634e487b7160e01b600052602260045260246000fd5b50919050565b8082028115828204841417610a3557610a356127c8565b81810381811115610a3557610a356127c8565b601f821115612307576000816000526020600020601f850160051c810160208610156128a05750805b601f850160051c820191505b818110156128bf578281556001016128ac565b505050505050565b815167ffffffffffffffff8111156128e1576128e1612659565b6128f5816128ef8454612813565b84612877565b602080601f83116001811461292a57600084156129125750858301515b600019600386901b1c1916600185901b1785556128bf565b600085815260208120601f198616915b828110156129595788860151825594840194600190910190840161293a565b50858210156129775787850151600019600388901b60f8161c191681555b5050505050600190811b01905550565b6000806040838503121561299a57600080fd5b82516129a58161250d565b602084015190925067ffffffffffffffff8111156129c257600080fd5b8301601f810185136129d357600080fd5b80516129e16126e7826126a0565b8181528660208385010111156129f657600080fd5b612a0782602083016020860161235c565b8093505050509250929050565b60008154612a2181612813565b808552602060018381168015612a3e5760018114612a5857612a86565b60ff1985168884015283151560051b880183019550612a86565b866000528260002060005b85811015612a7e5781548a8201860152908301908401612a63565b890184019650505b505050505092915050565b828152604060208201526000612aaa6040830184612a14565b949350505050565b602081526000610da16020830184612a1456fea2646970667358221220e47265ee12c2a0a4e70f7fd214182ac9034f1df34e8941ee3676782beca6f5b364736f6c634300081800334a7572697364696374696f6e20726571756972656d656e7473206e6f74206d6574",
  "linkReferences": {},
  "deployedLinkReferences": {}
}